:100000000C9446000C9450000C9450000C9450003A
:100010000C9450000C9450000C9450000C94500020
:100020000C9450000C9450000C9450000C94500010
:100030000C9450000C9450000C9450000C94500000
:100040000C9450000C9450000C9450000C945000F0
:100050000C9450000C9450000C9450000C945000E0
:100060000C9450000C9450000C9450000C945000D0
:100070000C9450000C9450000C9450000C945000C0
:100080000C9450000C9450000C94500011241FBE8E
:10009000CFEFD0E4DEBFCDBF0E9452000C94F10040
:1000A0000C940000CF93DF93CDB7DEB7A6970FB6C1
:1000B000F894DEBF0FBECDBF84E290E02FEFFC01CD
:1000C00020838AE290E02FEFFC01208389E492E014
:1000D000A0E0B0E089879A87AB87BC8789859A853D
:1000E000AB85BC8589839A83AB83BC8384E893E02A
:1000F000A0E0B0E08D879E87AF87B88B84E893E05F
:10010000A0E0B0E0898B9A8BAB8BBC8B84E893E04A
:10011000A0E0B0E08D8B9E8BAF8BB88F198E1A8EBE
:100120001B8E1C8E80E090E0A0E8BFE38D8F9E8F39
:10013000AF8FB8A319A21AA21BA21CA21D821E82F5
:100140001F82188619821A821B821C8289819A81D9
:10015000AB81BC810196A11DB11D89839A83AB83BC
:10016000BC8389819A81AB81BC818C309105A105CA
:10017000B10579F419821A821B821C828D819E81BD
:10018000AF81B8850196A11DB11D8D839E83AF837C
:10019000B8878D819E81AF81B88580319105A10599
:1001A000B10521F41D821E821F8218862D813E8199
:1001B00081E090E002C0880F991F2A95E2F79EA384
:1001C0008DA385E290E02DA12095FC0120838BE298
:1001D00090E02DA13EA1232F33272095FC01208301
:0601E000B5CFF894FFCF3B
:00000001FF
